:100000000C940F020C942C020C942C020C942C02D5
:100010000C942C020C942C020C942C020C942C02A8
:100020000C942C020C942C020C942C020C942C0298
:100030000C942C020C942C020C94E2210C942C02B3
:100040000C942C020C942C020C94E8040C942C02BA
:100050000C942C020C942C020C942C020C942C0268
:100060000C942C020C942C02B622B922BC22BF2282
:10007000C222C522C822CB22CE22D122D422D7220C
:10008000DA22DD22E022E322E622E922EC22EF223C
:100090004572726F72206E6F7420666F756E6400A9
:1000A00028313929476976656E20706172616D6506
:1000B00074657220697320696E76616C69640028CA
:1000C0003138294E756D626572206F66206F7065DC
:1000D0006E2066696C6573203E2046465F46535F1E
:1000E0004C4F434B00283137294C464E20776F72D6
:1000F0006B696E672062756666657220636F756CEA
:1001000064206E6F7420626520616C6C6F63617433
:1001100065640028313629546865206F7065726106
:1001200074696F6E2069732072656A6563746564B3
:10013000206163636F7264696E6720746F207468F6
:10014000652066696C652073686172696E672070EE
:100150006F6C6963790028313529436F756C6420B1
:100160006E6F74206765742061206772616E742001
:10017000746F206163636573732074686520766FA4
:100180006C756D652077697468696E206465666951
:100190006E656420706572696F640028313429547B
:1001A000686520665F6D6B667328292061626F72D7
:1001B0007465642064756520746F20616E792070A9
:1001C000726F626C656D2000283133295468657246
:1001D00065206973206E6F2076616C6964204641EA
:1001E0005420766F6C756D6500283132295468652E
:1001F00020766F6C756D6520686173206E6F207757
:100200006F726B2061726561002831312954686515
:10021000206C6F676963616C206472697665206E1B
:10022000756D62657220697320696E76616C6964B0
:1002300000283130295468652070687973696361DA
:100240006C206472697665206973207772697465C1
:100250002070726F7465637465640028392954686E
:10026000652066696C652F6469726563746F727965
:10027000206F626A65637420697320696E76616CB1
:100280006964002838294163636573732064656E6F
:100290006965642064756520746F2070726F686989
:1002A000626974656420616363657373002837292C
:1002B0004163636573732064656E6965642064756A
:1002C0006520746F2070726F68696269746564205C
:1002D000616363657373206F722064697265637410
:1002E0006F72792066756C6C002836295468652019
:1002F00070617468206E616D6520666F726D6174E7
:1003000020697320696E76616C6964002835294321
:100310006F756C64206E6F742066696E64207468FB
:1003200065207061746800283429436F756C6420FF
:100330006E6F742066696E64207468652066696CEF
:100340006500283329546865207068797369636192
:100350006C2064726976652063616E6E6F742077BD
:100360006F726B2000283229417373657274696F54
:100370006E206661696C65640028312941206861DE
:100380007264206572726F72206F6363757272653A
:100390006420696E20746865206C6F77206C6576C8
:1003A000656C206469736B20492F4F206C617965FF
:1003B0007200283029537563636565646564005273
:1003C00054432054494D453A0054656D706572613F
:1003D0007475726120417475616C3A005072657376
:1003E00073C3A36F2041746D6F7366657269636137
:1003F00020417475616C3A0046696C6970652043F0
:100400006F656C686F20323032312E310053696D68
:10041000706C65446174616C6F676765720011246C
:100420001FBECFEFD8E0DEBFCDBF12E0A0E0B1E04D
:10043000E8EDF2E502C005900D92AC30B107D9F7B6
:1004400026E0ACE0B2E001C01D92A53CB207E1F7A6
:100450000E94A7230C946A290C9400000E94C804EF
:100460008EEE0E94E10484EF0E94E1048EE20E947D
:10047000E1040E94CD048FE19EE40197F1F700C0F2
:10048000000008950E94C8048EEE0E94E10484EFEB
:100490000E94E10484E30E94E1040E94CD048FE104
:1004A0009EE40197F1F700C000000895CF93DF9319
:1004B000C82F0E94C8048EEE0E94E1048C2F0E9477
:1004C000E1040E94C8048FEE0E94E1040E94D1045E
:1004D000C82F0E94D904D0E0DC2FCC27C82B0E9463
:1004E000CD04CE01DF91CF9108958AEA0E94560291
:1004F00090931902809318028CEA0E9456029093FE
:100500002702809326028EEA0E94560290932902C7
:100510008093280280EB0E945602909323028093DE
:10052000220282EB0E94560290931D0280931C02CD
:1005300084EB0E94560290931B0280931A0286EB72
:100540000E94560290932D0280932C0288EB0E9409
:10055000560290932B0280932A028AEB0E94560245
:1005600090932502809324028CEB0E945602909374
:100570002F0280932E028EEB0E9456029093170258
:10058000809316020895CF93DF930E94C8048EEEE5
:100590000E94E10486EF0E94E1040E94C8048FEEED
:1005A0000E94E1040E94D104C82F0E94D904D0E027
:1005B000DC2FCC27C82B0E94CD04CE01DF91CF9138
:1005C0000895CF92DF92EF92FF920E94C8048EEEC0
:1005D0000E94E10486EF0E94E1040E94C8048FEEAD
:1005E0000E94E1040E94D104C82ED12CE12CF12CF0
:1005F0007601DD24CC240E94D104D82A0E94D9049B
:10060000C82A0E94CD0499278F2D7E2D6D2DFF9035
:10061000EF90DF90CF900895CF92DF92EF92FF920C
:100620000F931F93AC0160E070E080911A029091EB
:100630001B029A01AB01281B390B41095109A091FA
:100640001C02B0911D020E949A246B017C018FE074
:10065000F594E794D794C7948A95D1F760912E02C8
:1006600070912F02CB01770FAA0BBB0BBC01CD0100
:100670002BE0660F771F881F991F2A95D1F72091CD
:100680001602309117028901330F220B330BA90197
:1006900098012C0D3D1D4E1D5F1D0E947524C20E3C
:1006A000D31EE41EF51EC0921E02D0921F02E092DD
:1006B0002002F092210288E0C80ED11CE11CF11C3E
:1006C000D701C60134E0B695A795979587953A95D9
:1006D000D1F71F910F91FF90EF90DF90CF90089589
:1006E0004F925F926F927F928F929F92AF92BF9242
:1006F000CF92DF92EF92FF92CF93DF93CDB7DEB729
:1007000028970FB6F894DEBF0FBECDBF69837A83FA
:100710008B839C8340901E0250901F0260902002A9
:100720007090210220EA421A2FE0520A61087108F3
:10073000A3019201C301B2010E9423244B015C0179
:10074000E0911802F0911902A0912C02B0912D02B3
:100750009B01AC018CE055954795379527958A9577
:10076000D1F70E94A5246C01FF24D7FCF094EF2C54
:10077000A0912802B0912902A30192010E94A52410
:10078000DC01CB013DE0B595A795979587953A9506
:10079000D1F78C0D9D1DAE1DBF1D0296A11DB11D73
:1007A00042E0B595A795979587954A95D1F79C0115
:1007B000AD0130584F4F5F4FA0912202B0912302FC
:1007C0000E949A246B017C015FE0F694E794D79431
:1007D000C7945A95D1F7A0912A02B0912B02A50196
:1007E00094010E94A5249B01AC0167E155954795B2
:1007F000379527956A95D1F72D833E834F83588788
:10080000A0912602B0912702A30192010E94A52483
:10081000DC01CB017BE0B595A795979587957A95F7
:10082000D1F72D813E814F815885820F931FA41FE0
:10083000B51FAF01FF0F660B770BE2E0440F551FAA
:10084000661F771FEA95D1F7840F951FA61FB71F64
:100850000296A11DB11DF2E0B595A79597958795D4
:10086000FA95D1F729813A814B815C81281B390B9C
:100870004A0B5B0BA0E5B3EC0E949A2497FD0BC0DA
:10088000660F771F881F991FA70196010E945324A6
:1008900049015A010AC0A70196010E945324490147
:1008A0005A01880C991CAA1CBB1C9927B7FC9A9565
:1008B0008B2D7A2D692D9B01AC010E9423249B0175
:1008C000AC01AEEDBBE00E949A246B017C01A3E475
:1008D000B3EEA50194010E94A824BB2797FDB09513
:1008E000AB2F6701FF24D7FCF094EF2C8C0D9D1DDE
:1008F000AE1DBF1D8153914FAF4FBF4F44E0B59523
:10090000A795979587954A95D1F7BC01CD01680DBC
:10091000791D8A1D9B1D28960FB6F894DEBF0FBE69
:10092000CDBFDF91CF91FF90EF90DF90CF90BF9040
:10093000AF909F908F907F906F905F904F900895B1
:10094000CF93DF93EC010E9475020E942E020E9459
:10095000C3020E940C039D838C830E9442020E946A
:10096000E1020E947003688379838A839B83DF910D
:10097000CF9108958CE08093B800ECEBF0E080819B
:100980008460808308958091BC0087FFFCCF089528
:1009900084EA8093BC000C94C30484E98093BC0077
:1009A000089584EC8093BC000E94C3048091BB0036
:1009B000089584E88093BC000E94C3048091BB002A
:1009C00008958093BB0084E88093BC000C94C3041A
:1009D0001F920F920FB60F9211248F93EF93FF93F4
:1009E000E0910D02F0E08091C600E05DFD4F808354
:1009F00080910D028F5F80930D0280910D028150D6
:100A000080930C02FF91EF918F910F900FBE0F908A
:100A10001F90189580910D020895E0910C02F0E06E
:100A2000E05DFD4F80810895E0910C02F0E0E05D13
:100A3000FD4F808190910D02915090930D02909105
:100A40000C02915090930C02089580910C0208952D
:100A500080E090E0FC01E05DFD4F10820196823362
:100A60009105C1F710920C0210920D020895109298
:100A7000C50087E68093C400E1ECF0E080818068E7
:100A80008083808188618083E2ECF0E080818660F1
:100A9000808308959091C00095FFFCCF8093C6009D
:100AA00008958091C00087FFFCCF8091C600089513
:100AB0000F931F93CF938C01C0E0F801EC0FF11D51
:100AC0008081882321F00E944A05CF5FF6CFCF9125
:100AD0001F910F9108950E9458058DE00E944A05CC
:100AE0008AE00C944A05FF920F931F93CF93DF93F4
:100AF000CDB7DEB72A970FB6F894DEBF0FBECDBFD5
:100B0000F22E8E010F5F1F4F4A3059F0403181F0B5
:100B10004830F9F49F938F937F936F9385E891E02A
:100B20000DC09F938F937F936F9381E891E006C0F0
:100B30009F938F937F936F938BE891E09F938F9315
:100B40001F930F930E9480260FB6F894DEBF0FBE4E
:100B5000CDBFC801FF2019F00E946B0502C00E94A2
:100B600058052A960FB6F894DEBF0FBECDBFDF91B1
:100B7000CF911F910F91FF900895BF92CF92DF9276
:100B8000EF92FF920F931F93CF93DF93CDB7DEB712
:100B90002A970FB6F894DEBF0FBECDBF6B017C0164
:100BA000B42E0E942E257F936F9382EC91E09F9349
:100BB0008F938E010F5F1F4F1F930F930E9480260C
:100BC000C8010E94580520E030E048EC52E4C7011B
:100BD000B6010E94EB250E942E25CB0164E670E051
:100BE0000E943F249F938F938FE891E09F938F9370
:100BF0001F930F930E9480260FB6F894DEBF0FBE9E
:100C0000CDBFC801BB2019F00E946B0502C00E9435
:100C100058052A960FB6F894DEBF0FBECDBFDF9100
:100C2000CF911F910F91FF90EF90DF90CF90BF90E9
:100C30000895FF920F931F93CF93DF93CDB7DEB745
:100C40002A970FB6F894DEBF0FBECDBFF22E8E01ED
:100C50000F5F1F4F4A3059F0403181F04830F9F4AE
:100C60009F938F937F936F9387E891E00DC09F933D
:100C70008F937F936F9381E891E006C09F938F934A
:100C80007F936F938BE891E09F938F931F930F93C4
:100C90000E9480260FB6F894DEBF0FBECDBFC801FC
:100CA000FF2019F00E946B0502C00E9458052A9689
:100CB0000FB6F894DEBF0FBECDBFDF91CF911F916D
:100CC0000F91FF900895FF920F931F93CF93DF939F
:100CD00000D000D0CDB7DEB7F42E8E010F5F1F4FCE
:100CE0006A3049F0603161F06830D1F41F928F931F
:100CF00083E991E009C01F928F9382EC91E004C0D8
:100D00001F928F9386E991E09F938F931F930F9388
:100D10000E9480260F900F900F900F900F900F90D1
:100D2000C801FF2019F00E946B0502C00E945805FF
:100D30000F900F900F900F90DF91CF911F910F9117
:100D4000FF9008950F931F93CF93DF938C01C0E022
:100D5000D0E0C017D10759F0FE01E05DFD4F808162
:100D6000882329F080810E944A052196F2CF8AE0EB
:100D700092E0DF91CF911F910F910C946B05EF9250
:100D8000FF920F931F93CF93DF93EC018C017C01B3
:100D900083E0E80EF11C40E06AE0F80181918F01E8
:100DA0000E9463068EE20E944A050E151F0599F700
:100DB00041E06AE08B81DF91CF911F910F91FF900D
:100DC000EF900C946306CF93DF93EC01CE01FE010C
:100DD0002491222331F02196FC0184910E944A053E
:100DE000F5CFDF91CF9108950E94E3068AE092E06B
:100DF0000C946B05CF93C82F0E94C80480ED0E940D
:100E0000E1048C2F0E94E1040E94C80481ED0E943D
:100E1000E1040E94D904C82F0E94CD048C2FCF91E9
:100E20000895CF9380E00E94FA06C82F0E94C8045C
:100E300080ED0E94E10480E00E94E1048C2F8F7716
:100E40000E94E104CF910C94CD04DF92EF92FF92C7
:100E50000F931F93CF93DF930E94C80480ED0E94ED
:100E6000E10480E00E94E1040E94C80481ED0E9438
:100E7000E1040E94D104E82E0E94D104082F0E94B0
:100E8000D104C82F0E94D104D82E0E94D104182F5B
:100E90000E94D104D82F0E94D904F82E0E94CD04BC
:100EA0008E2D82958F709E2D9F70E92E2AE0829F55
:100EB000E00C1124E0926202802F8077869586955F
:100EC0008695982F990F990F890F0F70080F00932F
:100ED00063028C2F82958F7011F0CF70C65FC09324
:100EE0006402D0926602812F82958F701F709AE003
:100EF000899F100D112410936502D4FB882780F977
:100F0000880F982F990F990F890FDF70D80FD09302
:100F100067028F2D82958F702AE0829FC001112475
:100F20008053984F2F2D2F70820F911D909369023F
:100F300080936802DF91CF911F910F91FF90EF9006
:100F4000DF9008951F93CF93DF93362F2AE0622F0F
:100F50000E943324192F50E1859FC0011124182BC2
:100F6000832F0E943324D92F20E1829FC0011124B6
:100F7000D82B4A3010F4C42F01C0C0E086EF840F94
:100F80008A3038F4842F6AE00E943324C92FC0616C
:100F900008C0443130F0842F6AE00E943324C92F06
:100FA000C0620E94C80480ED0E94E10480E00E94BB
:100FB000E104812F0E94E1048D2F0E94E1048C2F17
:100FC0000E94E104DF91CF911F910C94CD040F9307
:100FD0001F93CF93DF93082F162FD42F0E94C8049E
:100FE00080ED0E94E10484E00E94E104CAE0802FC9
:100FF0006C2F0E943324292F30E1839FC0011124DC
:10100000822B0E94E104812F6C2F0E943324292F10
:1010100030E1839FC0011124822B0E94E1048D2FB7
:101020006C2F0E943324292F30E1839FC0011124AB
:10103000822B0E94E104DF91CF911F910F910C94BC
:10104000CD0482E00E94FA06982F929596959770AB
:1010500019F08F708C5E0895982F92959F7011F003
:101060008F70865F089581E00E94FA06982F90772E
:10107000969596959695292F220F220F920F8F7095
:10108000890F80936302089580E00E94FA06982FEA
:1010900092959F708F702AE0929F800D112480930B
:1010A0006202089583E00E94FA0680936602089522
:1010B00084E00E94FA06982F92959F708F702AE024
:1010C000929F800D112480936502089585E00E940F
:1010D000FA0684FB992790F9990F292F220F220FE6
:1010E000920F8F70890F80936702089586E00E94A7
:1010F000FA06282F22952F708F7090E03AE0239FF8
:10110000800D911D112490936902809368020895C7
:101110000E94C80480ED0E94E10487E00E94E1047F
:1011200080E00E94E10480E00E94E10480E00E94EF
:10113000E10480E00E94E10480E80E94E10480E88C
:101140000E94E10480E80E94E1040E94CD040E9414
:10115000C80480ED0E94E1048EE00E94E1048EE16B
:101160000E94E1040C94CD04CF938FE00E94FA0614
:10117000C82F882379F00E94C80480ED0E94E10402
:101180008FE00E94E1048C2F8C7F0E94E104CF91BC
:101190000C94CD04CF910895811102C00C94911E3E
:1011A00081E00895811102C00C94BC1D81E0089576
:1011B0000F931F93FB01BA01A9019801811105C08A
:1011C000CF011F910F910C94941E84E090E01F9129
:1011D0000F9108950F931F93FB01BA01A901980184
:1011E000811105C0CF011F910F910C94DC1E84E08A
:1011F00090E01F910F910895962F811104C0BA01BC
:10120000892F0C94591F84E090E008950C94CA2112
:10121000FC0162817381CB01A0E0B0E0BA2FA92F5D
:10122000982F88272181822BBA2FA92F982F8827C2
:101230002081BC01CD01622B08950F931F93FC0107
:101240009A01AB01225031094109510983899489DE
:10125000A589B6890297A109B109281739074A0754
:101260005B0768F4A185B2850E949A2407A110A5A6
:1012700021A532A5600F711F821F931F03C060E07C
:1012800070E0CB011F910F910895CF93DF93DC01A4
:10129000ED91FC9111973097D1F09F012F5F3F4F57
:1012A000E90121978881813278F08A33B9F79081FA
:1012B00080ED890F8A3058F432962E173F0739F4A3
:1012C000903329F42D933C9380E090E002C08FEF9F
:1012D0009FEFDF91CF9108950F931F93CF93DF93EB
:1012E000EC018B01892BF9F0E881F9813097D9F075
:1012F00080818823C1F02A813B81858196812817CE
:10130000390789F481810E94CC0880FD0CC02881B6
:10131000398180E090E0F80131832083DF91CF9123
:101320001F910F91089589E090E020E030E0F3CF25
:101330008F929F92AF92BF92EF92FF920F931F9363
:10134000CF93DF93EC017C014FE2E40EF11C2BA55F
:101350003CA54DA55EA501E010E0B70189810E9482
:10136000EA08892B41F51B820BA51CA52DA53EA5DE
:101370008F89988DA98DBA8D8F8C98A0A9A0BAA0BD
:10138000B901A801481959096A097B094817590781
:101390006A077B0798F46A81623081F4A901980199
:1013A000280F391F4A1F5B1F01E010E0B701898138
:1013B0000E94EA0803C081E090E002C080E090E073
:1013C000DF91CF911F910F91FF90EF90BF90AF9061
:1013D0009F908F900895EF92FF920F931F93CF935A
:1013E000DF93EC01FC01E35DFD4FE080F1809FA500
:1013F0009B3E21F0985E923008F04FC025E5E21642
:101400002AEAF20661F448E050E06BE971E0CE01AF
:101410008F579F4F0E945826892B09F446C08AADEA
:101420009BAD8C01015011090823192301151105E9
:10143000A1F58115924089F58CAD882371F190E07A
:101440009C012150310982239323892B31F58DADE5
:101450009EAD892B11F18FAD90E001970297E8F4D2
:10146000FE01E05CFF4F80819181892BB1F03296C3
:10147000808191818038910550F4CE01815B9F4F2E
:101480000E940809611571058140910530F0CB5B20
:10149000DF4F88819981892B69F485E5E8168AEA0E
:1014A000F80631F003E010E005C000E010E002C0F3
:1014B00002E010E0C801DF91CF911F910F91FF90E2
:1014C000EF900895CF92DF92EF92FF920F931F93C8
:1014D000CF93DF93EC016A017B018BA59CA5ADA5A1
:1014E000BEA584179507A607B70719F18B8181114F
:1014F00013C001E010E0A7019601BE01615D7F4FBE
:1015000089810E94D808892B69F081E090E0CC2481
:10151000CA94DC2C760108C0CE010E94980900977D
:1015200051F4E7CF80E090E0CBA6DCA6EDA6FEA6C6
:1015300002C080E090E0DF91CF911F910F91FF906A
:10154000EF90DF90CF900895AF92BF92CF92DF924D
:10155000EF92FF920F931F93CF93DF934230510589
:101560006105710508F4A3C0FC010389148925896C
:101570003689401751076207730708F098C06A015F
:101580007B018C018081823009F44DC0833009F4E5
:101590006AC0813009F08BC0EA01D695C795CC0DA1
:1015A000DD1DCE01892F99278695478D50A161A118
:1015B00072A1480F591F611D711DCF010E94620A5F
:1015C000892B21F06FEF7FEFCB0175C05E01FFEF3C
:1015D000AF1ABF0AD170C00FD11FCFA5C501892F87
:1015E00099278695F801478D50A161A172A1480FF6
:1015F000591F611D711DC8010E94620A892B11F7D4
:10160000F1E0BF22F801EA0DFB1D87A56C2F70E009
:10161000782BC0FE06C054E0769567955A95E1F7A1
:101620001FC07F701DC077276F2D5E2D4D2D878DBC
:1016300090A1A1A1B2A1480F591F6A1F7B1FCF0122
:101640000E94620A892B09F0BDCFCC0CDD1CE89406
:10165000C0F8F1E0DF22F801EC0DFD1D67A570A9CF
:1016600080E090E028C0878D90A1A1A1B2A127E0E1
:1016700076956795579547952A95D1F7480F591F45
:101680006A1F7B1FCF010E94620A892B09F09ACF43
:10169000015D1F4FCC0CDD1CCC0CDD1CC6018C7F0A
:1016A0009170800F911F0E9408099F7004C061E033
:1016B00070E080E090E0DF91CF911F910F91FF905B
:1016C000EF90DF90CF90BF90AF900895CF92DF92D0
:1016D000EF92FF920F931F93CF93DF938C01FC0146
:1016E000C081D18116861786108A118AC680D7805C
:1016F000E084F184C114D104E104F104F1F488819F
:10170000833040F08BA19CA1ADA1BEA10097A105A3
:10171000B10589F48F819885892B19F482E090E0D6
:101720004EC08BA19CA1ADA1BEA1F801868B978B69
:10173000A08FB18F2EC06C017D0189859A85892B80
:10174000F1F4B701A601F801808191810E94A40AF9
:101750006B017C016F3F7F4F8F4F9F4F71F182E094
:10176000C816D104E104F104C8F28B899C89AD89C3
:10177000BE89C816D906EA06FB0618F3CFCFB70113
:10178000A601CE010E941D09F801668B778B808F20
:10179000918FF801C28AD38AE48AF58A868997896B
:1017A000A08DB18D892B8A2B8B2B09F4B7CFAF96E7
:1017B000D38FC28F80E090E002C081E090E0DF91A3
:1017C000CF911F910F91FF90EF90DF90CF900895F0
:1017D0002F923F924F925F926F927F928F929F9241
:1017E000AF92BF92CF92DF92EF92FF920F931F932F
:1017F000CF93DF93CDB7DEB7A0970FB6F894DEBFD7
:101800000FBECDBF5B01142FDB011D921C920E9405
:1018100045096C0197FD70C2FC01EE0FFF1FE05FF0
:10182000FD4FE080F180E114F10409F468C2F50194
:10183000F182E0821E7FD7018C91882371F011968E
:101840008C910E94CC0880FD08C0112309F45AC273
:1018500082FF58C28AE090E064C2F7011082C18220
:101860008C2D0E94D20880FD50C2112311F082FD00
:10187000F1CFD70113961C928FEF9FEFDC01F70198
:1018800083A794A7A5A7B6A71701FFE22F0E311CC7
:1018900001E010E020E030E0A901B101D70111968C
:1018A0008C910E94D808892B31F081E090E04FEFB5
:1018B0005FEFBA0105C080E090E040E050E0BA017F
:1018C000F70143A754A765A776A7892B09F04BC05A
:1018D000C7010E94EB098230910509F046C057010B
:1018E000FBE0AF1AFEEFBF0A8E010F5F1F4F4E01E4
:1018F00021E1820E911C6801C5010E940809D601F0
:101900006D937D938D939D936D01B0E1AB0EB11CF2
:10191000C814D90489F744244A94542C3201F8019C
:1019200041915191619171918F014115510561056D
:10193000710509F4F0C1D70113961C92F70143A673
:1019400054A665A676A6C7010E94620A892B09F0F3
:10195000E5C1C7010E94EB098230910530F00815FE
:101960001905E9F602C084E090E08430910509F49D
:10197000CFC1029718F08DE090E0D3C1D701DA967D
:101980008D919C91DB9781159240A9F7F701EB5B54
:10199000FF4F408051804114510419F0612C712C8B
:1019A00007C0C7018D5A9F4F0E9408092B013C01B7
:1019B000D7019B962D913D914D915C919E97298BDE
:1019C0003A8B4B8B5C8BF701478A508E618E728EFF
:1019D00007AD02838FEF800F823068F614AD812F40
:1019E00090E092878187009731F29C012150310964
:1019F00082239323892B09F0BECFE05CFF4FC08088
:101A0000D1801896DC92CE921797C6018F709927D5
:101A1000892B09F0B0CF3296808191814C01A12CA5
:101A2000B12C892B39F4C701815B9F4F0E940809B3
:101A30004B015C01D701DD96ED91FC91DE9730976B
:101A400009F499CFA02FB0E0A30192010E949A243B
:101A5000698F7A8F8B8F9C8F9F0140E050E02D8F94
:101A60003E8F4F8F58A3C60164E0969587956A957F
:101A7000E1F7280F391F411D511DDA01C901298DD8
:101A80003A8D4B8D5C8D280F391F4A1F5B1F2D8BA4
:101A90003E8B4F8B588F82169306A406B50608F42A
:101AA0006ACFC501B401621B730B840B950B212F08
:101AB00030E040E050E00E945324DA01C901019770
:101AC000A109B109853F9F4FAF4FBF4008F053CFE9
:101AD000263F8FEF38074105510548F4263F9FE028
:101AE00039074105510530F401E010E005C003E07D
:101AF00010E002C002E010E049015A01A2E08A0EA3
:101B0000911CA11CB11CF701838A948AA58AB68A0C
:101B100029893A894B895C89238F348F458F568F69
:101B20008D8D9E8DAF8DB8A1280F391F4A1F5B1F69
:101B30002D8F3E8F4F8F58A3278F30A341A352A3E1
:101B400049895A896B897C898D899E89AF89B88D2D
:101B5000480F591F6A1F7B1F47A350A761A772A791
:101B600003301105E1F4E75AFF4F80819181892B01
:101B700009F001CFCD2809F0FECEC701855A9F4F4D
:101B80000E940809F70163A374A385A396A342E00A
:101B9000880C991CAA1CBB1C4A95D1F731C0CD28D2
:101BA00009F4E9CE8D8D9E8DAF8DB8A1298D3A8D2A
:101BB0004B8D5C8D820F931FA41FB51FF70183A36C
:101BC00094A3A5A3B6A30230110529F4880C991C8F
:101BD000AA1CBB1C15C0A3E0B0E0A50194010E94A3
:101BE0009A24DC01CB01B695A79597958795F1E0EE
:101BF0008F229924AA24BB24880E991EAA1EBB1EDC
:101C00002FEF820E21E0921EA11CB11C89E0B69438
:101C1000A794979487948A95D1F7481459046A0435
:101C20007B0408F4A8CE8FEF9FEFDC01F7018787D4
:101C3000908BA18BB28B83879487A587B68780E82A
:101C400084830330110509F047C0E15AFF4F8081BA
:101C50009181019709F040C049895A896B897C8933
:101C60004F5F5F4F6F4F7F4FC7010E94620A892B02
:101C700099F5D70114961C92F701E35DFD4F808121
:101C8000918185359A4A41F5C1010E940809623562
:101C900072458146914401F5C7018D5E9D4F0E94BA
:101CA00008096237724781449146B1F4C701895EE1
:101CB0009D4F0E940809D7011F966D937D938D93C8
:101CC0009C935297C701855E9D4F0E940809F701BA
:101CD0006387748785879687D7010C9380910E025E
:101CE00090910F02019690930F0280930E02169628
:101CF0009C938E93159706C08BE090E012C08CE009
:101D000090E00FC080E090E00CC083E090E009C05C
:101D100081E090E006C083E090E021CE84E090E096
:101D20001ECEA0960FB6F894DEBF0FBECDBFDF91DA
:101D3000CF911F910F91FF90EF90DF90CF90BF90C8
:101D4000AF909F908F907F906F905F904F903F905B
:101D50002F9008952F923F924F925F926F927F92B1
:101D60008F929F92AF92BF92CF92DF92EF92FF92AB
:101D70000F931F93CF93DF9300D000D000D0CDB747
:101D8000DEB79E838D836A017B0128013901DC0166
:101D90008C91823009F478C0833009F49DC0813081
:101DA00009F0DCC08A0116950795040F151FC801BC
:101DB000892F992786955F964D915D916D917C91C4
:101DC0009297480F591F611D711DCD010E94620A33
:101DD0005C01892B09F0C5C02D803E80BFE22B0E2F
:101DE000311C4801EFEF8E1A9E0A1170F101E00FCD
:101DF000F11FD701C60181709927AA27BB278983C4
:101E00009A83AB83BC83C0FE09C08081282F2F70CA
:101E1000A0E14A9EC0011124822B01C0842D808341
:101E200081E0ED81FE818383478D50A161A172A184
:101E3000C401892F99278695480F591F611D711D6F
:101E4000CF010E94620A5C01892B09F08AC0F1E08F
:101E50009F22F101E80DF91D89819A81AB81BC8136
:101E6000892B8A2B8B2B41F064E0769467945794EE
:101E700047946A95D1F706C09081907F852D8F7029
:101E8000492E482A408222C077276F2D5E2D4D2D86
:101E9000ED81FE81878D90A1A1A1B2A1480F591FAC
:101EA0006A1F7B1FCF010E94620A5C01892B09F027
:101EB00058C0ED81FE81BF96CC0CDD1CE894C0F8C3
:101EC00021E0D222EC0DFD1D4082518281E0AD81E6
:101ED000BE8113968C9345C0ED81FE81878D90A1C4
:101EE000A1A1B2A137E076956795579547953A95A8
:101EF000D1F7480F591F6A1F7B1FCF010E94620A4A
:101F00005C01892B71F5FFE07F228D819E818F9688
:101F1000CC0CDD1CCC0CDD1C2CEFC22221E0D2222B
:101F2000C80ED91EC6010E940809DC01CB01882712
:101F30009927AA27B07F482A592A6A2A7B2AD601DC
:101F40004C9211965C92119712966C92129713967E
:101F50007C9281E0ED81FE81838303C082E0A82E24
:101F6000B12CC50126960FB6F894DEBF0FBECDBFCB
:101F7000DF91CF911F910F91FF90EF90DF90CF9065
:101F8000BF90AF909F908F907F906F905F904F9099
:101F90003F902F9008954F925F926F927F928F9211
:101FA0009F92AF92BF92CF92DF92EF92FF920F93E8
:101FB0001F93CF93DF938C012A013B01FC01C08169
:101FC000D181411551056105710599F48B849C847B
:101FD000AD84BE8481149104A104B10459F18B89AC
:101FE0009C89AD89BE8988169906AA06BB0630F180
:101FF00021C0CE010E94A40A6230710581059105BD
:1020000008F40FC16F3FFFEF7F078F079F0729F489
:102010004FEF3FEF2FEF9FEF0CC1CB88DC88ED88AF
:10202000FE886C157D058E059F0508F4FFC05301E1
:10203000420104C0812C912C540183948F8598898E
:10204000A989BA89892B8A2B8B2B11F440E0EAC02D
:1020500084149504A604B70409F047C0750164010F
:102060002FEFC21AD20AE20AF20A8B899C89AD8943
:10207000BE89C816D906EA06FB0628F092E0C92EEA
:10208000D12CE12CF12CB701A601F80180819181BE
:102090000E94A40A613071058105910509F4C1C04F
:1020A0006F3FFFEF7F078F079F0709F4B1CF672BC3
:1020B000682B692BA9F08B859C85AD85BE85823008
:1020C0009105A105B10588F04B895C896D897E89F0
:1020D00084179507A607B70740F44C015D0105C0BA
:1020E000C114D104E104F104D1F5750164012FEFAD
:1020F000C21AD20AE20AF20A8B899C89AD89BE898A
:10210000C816D906EA06FB0660F082E0881691043C
:10211000A104B10408F49ACF82E0C82ED12CE12C9E
:10212000F12CB701A601F801808191810E94A40AD7
:10213000611571058105910591F061307105810589
:10214000910509F46EC06F3F7F4F8F4F9F4F09F489
:102150005FCFC814D904EA04FB0449F677CF22E024
:10216000C216D104E104F10408F45BC08B899C8998
:10217000AD89BE89C816D906EA06FB0608F051C02B
:102180000FEF1FEF9801B701A601CE010E94AA0E22
:10219000009709F043C04114510461047104E9F44B
:1021A000CB86DC86ED86FE868F859889A989BA89DB
:1021B0004B895C896D897E89425051096109710999
:1021C000481759076A077B0708F10197A109B10968
:1021D0008F87988BA98BBA8B19C082E0481651045F
:1021E00061047104F0F08B899C89AD89BE89481621
:1021F00059066A067B06A8F497018601B301A2017D
:10220000CE010E94AA0E009759F208C08C8181600D
:102210008C834C2D3D2D2E2D9F2D0BC0019709F445
:10222000F7CE41E030E020E090E003C0462F372FAA
:10223000282F642F732F822FDF91CF911F910F9141
:10224000FF90EF90DF90CF90BF90AF909F908F90D6
:102250007F906F905F904F9008952F923F924F9292
:102260005F926F927F928F929F92AF92BF92CF9226
:10227000DF92EF92FF920F931F93CF93DF9300D0E3
:1022800000D000D0CDB7DEB7FC01208131813E8384
:102290002D83C684D784E088F18830E2C30ED11C38
:1022A000E11CF11CC114D10480E2E806F10420F025
:1022B000168A178A108E118E86899789A08DB18D06
:1022C0000097A105B10509F400C13B011F01B70149
:1022D000A601517066277727452B462B472B09F01F
:1022E000E3C00196A11DB11D868B978BA08FB18F86
:1022F0004289538964897589ED81FE8141155105B3
:1023000061057105C9F487819085A0E0B0E0B7014F
:10231000A60135E076956795579547953A95D1F79B
:10232000481759076A077B0708F4BEC0F101168AEF
:10233000178A108E118EC9C0818592850197A0E001
:10234000B0E04601570129E0B694A794979487948A
:102350002A95D1F788219921AA21BB21892B8A2B83
:102360008B2B09F0A1C0CF010E94A40A4B015C0194
:10237000623071058105910518F482E090E0AAC0F1
:102380006F3F7F4F8F4F9F4F19F481E090E0A2C0C5
:10239000ED81FE8183899489A589B689881699067D
:1023A000AA06BB0608F470C0672809F4BFCFF10184
:1023B0004289538964897589C1010E94CB0F4B0101
:1023C0005C01611571058105910509F481C06130D9
:1023D00071058105910589F26F3F7F4F8F4F9F4FA8
:1023E000A1F2ED81FE81838181111BC0B501A401A1
:1023F0008D819E810E941D092B013C01ED81FE8192
:1024000063A774A785A796A7BF96FC83EB8380E09C
:1024100092E09C01119221503040E1F71A8219821A
:1024200020C08D819E810E949809892B09F0ADCF33
:10243000DDCF01E010E0A301920189819A81280F8C
:10244000391F411D511D6B817C81ED81FE81818190
:102450000E94EA08892B71F489819A8101969A83F6
:102460008983ED81FE818185928529813A812817B2
:102470003907F8F2ED81FE818185928529813A81C3
:102480002817390709F081CFF101828A938AA48A3B
:10249000B58AB501A4018D819E810E941D09F101BB
:1024A000668B778B808F918FF101C686D786E08A05
:1024B000F18A8D819E818F9696013170280F391F88
:1024C000338F228F80E090E005C084E090E002C06E
:1024D00087E090E026960FB6F894DEBF0FBECDBF22
:1024E000DF91CF911F910F91FF90EF90DF90CF90F0
:1024F000BF90AF909F908F907F906F905F904F9024
:102500003F902F9008951F93CF93DF9300D000D07A
:1025100000D0CDB7DEB79C838B837E836D83142F71
:102520007A836983CE0101960E94450997FD20C0F8
:10253000880F991FFC01E05FFD4F0190F081E02DB5
:10254000309709F01082EB81FC81309709F01082FE
:10255000DC01A05FBD4FED93FC93112361F040E0DF
:10256000BE016D5F7F4FCE0105960E94E80B05C04E
:102570008BE090E002C080E090E026960FB6F894E1
:10258000DEBF0FBECDBFDF91CF911F9108952F9277
:102590003F924F925F926F927F928F929F92AF92F3
:1025A000BF92CF92DF92EF92FF920F931F93CF9340
:1025B000DF93CDB7DEB7E5970FB6F894DEBF0FBE59
:1025C000CDBF7CA76BA7009709F44FC3342E9EA7FD
:1025D0008DA7242F2F732FA7422FBE01675D7F4F3A
:1025E000CE018B960E94E80B99AB88AB892B09F042
:1025F00081C389A49AA49A8289822BA53CA58901CA
:10260000D9018C912F5F3F4F8F32C9F38C35B9F3CD
:102610001F82188619861A868C91803228F0340120
:10262000BFE26B0E711C8FC080E888A7CE010196B7
:102630000E94660B6C01892B09F4D9C0DDC0EFE262
:102640008E1709F491C0FCE58F1709F48DC02EE2B6
:10265000821709F456C3EA14FB0408F00CC387FF81
:1026600006C0E82FEF77F0E0EF5FFE4F2080622D8D
:1026700070E084EA91E00E947526892B09F0FBC284
:102680008FE9820D8A3110F430EE230EEDE1F0E097
:10269000EC0FFD1FEE0DFF1D2082C70101967C018E
:1026A000EFEFCE1ADE0AD2018D912D01282EB0E275
:1026B000B81728F2EF2809F4DEC29D8D953E11F47B
:1026C00095E09D8F0C0D1D1D813208F45BC0D80173
:1026D0008C9181320CF456C080E088A7E980FA80A2
:1026E000CE0101960E94660B6C01892B09F44CC047
:1026F00088A5C114D10409F073C082FD78C08D8112
:1027000084FFB5C2EF85F889F170AF01460D571D02
:10271000DA015A968D919C915B97A0E0B0E0F401AC
:102720002081233061F4FA014489558960E070E02A
:10273000BA0155274427842B952BA62BB72B8F83C3
:102740009887A987BA874BE050E060E270E0CE013D
:102750004D960E946E262801E12CF12CC12CD12C23
:1027600048E0A42EB12C9CCFF801EC0DFD1D03C058
:102770009C3509F09FCF6F01C01AD10A91919F3209
:10278000B9F7F9CF84E0A9CF4F89588D698D7A8D3B
:10279000C7010E94620A6C01892B09F0A9CF8B8DB9
:1027A0009C8DFC0120812223B9F02385322F3F73B9
:1027B0003D8323FD0AC04BE050E0BE01635E7F4FC6
:1027C0000E945826892B09F493CF60E070E0CE0177
:1027D00001960E942D1188CF34E0C32ED12C88CFD2
:1027E000F4E0CF16D10441F482FF41C205C088A5B0
:1027F00087FD41C2C12CD12C832D8C7109F43DC1C0
:10280000C114D10409F452C0F4E0CF16D10409F088
:1028100046C009811A81CE0101960E94660B6C01A7
:10282000892BB1F54F89588D698D7A8DC8010E9429
:10283000620A6C01892B61F5EB8DFC8D8081853EF0
:10284000F1F44F89588D698D7A8DC8010E94620A12
:102850006C01892B21F5EB8DFC8D80E2DF011D924F
:102860008A95E9F7AB8DBC8D8BE0FE017D960190DA
:102870000D928A95E1F781E0F801838310C08823E7
:1028800001F361E070E0CE0101960E942D11C7CFE7
:10289000F4E0CF16D10419F487E0C82ED12CFFA59F
:1028A000F860FFA7C114D10439F015C28D81817180
:1028B00009F00EC232FCE3C12FA523FFEFC00E9436
:1028C0000F22EB8DFC8D6687872E982EA92EBB24B8
:1028D00087866C01EE24FF24C08A092F1127222746
:1028E0003327018BEB8DFC8D668B878AC08E018F21
:1028F0002B8D3C8DE9A5FAA5D9015A968D919C9115
:102900005B972C01612C712C8081833069F4549683
:102910008D919C915597A0E0B0E0DC019927882724
:10292000482A592A6A2A7B2A80E2D9011B968C936D
:10293000AB8DBC8D5A961C925A975B961C925B97F6
:102940008081833029F454961C92549755961C929A
:10295000AB8DBC8D5C961C925C975D961C925D97CE
:102960005E961C925E975F961C9281E08383411471
:1029700051046104710409F48EC0B2E04B16510495
:102980006104710408F47FC129803A80D101539613
:102990004D915D916D917C91569744165506660652
:1029A000770608F070C183A594A5A5A5B6A58AAB46
:1029B0009BABACABBDAB73016201B701A6018981D2
:1029C0009A810E94A40A4B015C01672B682B692B3A
:1029D00009F461C191E089169104A104B10409F4DC
:1029E00052C1AFEF8A169A06AA06BA0609F44FC179
:1029F000B2E0CB16D104E104F10408F444C1F101C2
:102A000083899489A589B689C816D906EA06FB0682
:102A100008F039C100E010E09801B701A601C1013A
:102A20000E94AA0E6C01892B09F055C1F10187851E
:102A30009089A189B28943895489658976898A01F7
:102A40009B01025011092109310980179107A20742
:102A5000B30750F40196A11DB11D8787908BA18B00
:102A6000B28B84818160848375016401841695062C
:102A7000A606B70608F4A1CF0EC1C114D10409F00F
:102A80002AC18D8184FD20C131FE02C080FD20C19C
:102A9000FFA5F3FF03C02FA520642FA709A51AA542
:102AA000F80183A594A5A5A5B6A5EDA5FEA5848FDF
:102AB000958FA68FB78FEB8DFC8DADA5BEA591969A
:102AC000FC93EE939097428C538C612C712CD8011F
:102AD0008C91833059F44489558960E070E0BA01E3
:102AE00055274427442A552A662A772AADA5BEA52C
:102AF00016964D925D926D927C921997CF014C96ED
:102B00000E9408096B017C01EDA5FEA56287738711
:102B10008487958711830083D80115968D919C91A8
:102B2000169793838283BFA5B6871786108E118E62
:102B3000128E138E108A118A128A138A1F01B2E232
:102B40002B0E311C80E092E0F1019C01119221508A
:102B50003040E1F73FA535FFC1C0C114D104E10405
:102B6000F10409F4BBC0ADA5BEA55096CD92DD928F
:102B7000ED92FC925397F80181859285A0E0B0E038
:102B80004C015D01B9E0880C991CAA1CBB1CBA95CC
:102B9000D1F78C149D04AE04BF0408F5B301A20163
:102BA000ADA5BEA58D919C910E94A40A2B013C016C
:102BB000C818D908EA08FB0862307105810591053B
:102BC00050F06F3F7F4F8F4F9F4F19F721E030E05C
:102BD00039AB28AB04C0E2E0F0E0F9ABE8ABADA55F
:102BE000BEA554964D925D926D927C925797E8A93E
:102BF000F9A9EF2B09F07EC0D701C6019170AA2771
:102C0000BB27892B8A2B8B2B09F468C089A49AA433
:102C1000B301A201C4010E941D096115710581055E
:102C2000910509F45EC097018601A9E036952795C4
:102C300017950795AA95D1F7A9019801260F371F77
:102C4000481F591FADA5BEA558962D933D934D9392
:102C50005C935B9701E010E0B101F40181810E9477
:102C6000D808892B09F042C039C089E038C0F5E0A6
:102C7000CF2ED12CC1CDE6E0CE2ED12CBDCD78E02B
:102C8000C72ED12C28C062E0C62ED12C24C0CC2463
:102C9000C394D12C20C04AA95BA96CA97DA989A5A0
:102CA0009AA50E94620A6C01E9A5FAA5D301C201A6
:102CB0000197A109B10983879487A587B687C114B5
:102CC000D10409F4E5CE07C044E0C42ED12C03C0E2
:102CD00037E0C32ED12CD9AAC8AA0CC080E090E05E
:102CE0001CC022E030E039AB28AB04C081E090E0AA
:102CF00099AB88ABADA5BEA51D921C9288A999A9D8
:102D00000CC0BBE0AB16B10409F4B5CF98E0E92ED6
:102D1000F12C2BE0A22EB12CC3CCE5960FB6F89483
:102D2000DEBF0FBECDBFDF91CF911F910F91FF90FE
:102D3000EF90DF90CF90BF90AF909F908F907F905B
:102D40006F905F904F903F902F9008952F923F92F9
:102D50004F925F926F927F928F929F92AF92BF92AB
:102D6000CF92DF92EF92FF920F931F93CF93DF9357
:102D700000D000D000D0CDB7DEB77C014B015A01A6
:102D80003E832D83F90111821082BE016F5F7F4F58
:102D90000E946C09009709F02BC1F701878590E02C
:102DA000009709F025C1868580FF20C18285938523
:102DB000A485B5854089518962897389841B950BE7
:102DC000A60BB70BA50160E070E084179507A60776
:102DD000B70708F45C011701F2E22F0E311CA114B1
:102DE000B10409F401C1F70180899189A289B389ED
:102DF000AC01BD01517066277727452B462B472B29
:102E000009F0C5C0E981FA810185128501501109D7
:102E1000AC01BD0139E076956795579547953A9590
:102E2000D1F7042315230115110541F5F701892B6D
:102E30008A2B8B2B29F4668177818085918508C048
:102E40004489558966897789808191810E94A40A85
:102E5000623071058105910510F482E007C06F3F73
:102E6000FFEF7F078F079F0721F481E0F701878736
:102E7000BEC0F701648B758B868B978B89819A8195
:102E80009C838B83F70144895589668977890E94E1
:102E90001D096115710581059105F9F22B013C01B0
:102EA000400E511E611C711C6501CD2CDD24C694A1
:102EB000C114D104F1F1EB81FC81818592859801E7
:102EC0002C0D3D1D8217930718F46C01C01AD10A0E
:102ED0008601A3019201B401EB81FC8181810E94F2
:102EE000D808892B11F6F701868587FF1EC0808DD3
:102EF000918DA28DB38D84199509A609B709A601F4
:102F000060E070E084179507A607B70770F4DC014E
:102F1000BA2FAA27BB0FA80DB91D20E032E0F1019E
:102F200001900D9221503040D9F7DC2CCC24DD0CDF
:102F300041C0F701208D318D428D538D42165306CD
:102F400064067506F9F0868587FF0FC001E010E082
:102F5000B101EB81FC8181810E94EA08892B09F093
:102F600084CFF70186858F778687E981FA8101E032
:102F700010E0A3019201B10181810E94D808892B40
:102F800009F073CFF701408E518E628E738EF70178
:102F900060897189717080E092E0861B970B6501F2
:102FA0008A159B0508F46C01620D731DA601C4010E
:102FB0000E946526AC18BD08ED81FE81808191815B
:102FC0008C0D9D1D918380838C0C9D1CF701808945
:102FD0009189A289B3898C0D9D1DA11DB11D808B86
:102FE000918BA28BB38BFBCE80E001C087E090E099
:102FF00026960FB6F894DEBF0FBECDBFDF91CF91FE
:103000001F910F91FF90EF90DF90CF90BF90AF9006
:103010009F908F907F906F905F904F903F902F90F8
:1030200008952F923F924F925F926F927F928F926C
:103030009F92AF92BF92CF92DF92EF92FF920F9347
:103040001F93CF93DF93CDB7DEB728970FB6F894D1
:10305000DEBF0FBECDBF7C013B015A0138872F83F5
:10306000F90111821082BE016F5F7F4F0E946C09CF
:10307000009709F076C1F701878590E0009709F085
:1030800070C1868581FF6BC180899189A289B389CE
:10309000AC01BD014A0D5B1D611D711D481759072B
:1030A0006A077B0718F45C01A094B09497012E5D29
:1030B0003F4F3E832D83A114B10409F443C0F701AF
:1030C00080899189A289B389AC01BD0151706627BD
:1030D0007727452B462B472B09F0FEC0E981FA8163
:1030E00081849284F1E08F1A9108AC01BD0139E02E
:1030F00076956795579547953A95D1F7842295220D
:103100008114910409F046C0F701892B8A2B8B2B7F
:1031100069F46681778180859185611571058105E6
:103120009105B1F440E050E0BA0104C044895589EA
:1031300066897789C7010E94CB0F611571058105EA
:10314000910531F4F70186858064868780E008C1A7
:10315000613071058105910511F482E007C06F3F70
:10316000FFEF7F078F079F0721F481E0F701878733
:10317000F7C0F701648B758B868B978B068117815F
:1031800020853185012B022B032B21F46683778365
:1031900080879187F701868587FF13C0208D318D49
:1031A000428D538DE981FA8101E010E06D817E81CD
:1031B00081810E94EA08892BC1F6F70186858F7705
:1031C000868729813A813C832B83F701448955897D
:1031D00066897789C9010E941D09611571058105FC
:1031E000910509F4BACF1B012C01280C391C411C94
:1031F000511C6501CD2CDD24C694C114D10409F401
:1032000041C0EB81FC818185928594012C0D3D1D8F
:103210008217930718F46C01C818D9088601A20117
:103220009101B301EB81FC8181810E94EA08892B25
:1032300009F09BCFF701808D918DA28DB38D8219FE
:103240009309A409B509A60160E070E08417950709
:10325000A607B70798F4FC01FE2FEE27FF0FE60D37
:10326000F71D20E032E0AD81BE8101900D9221502A
:103270003040D9F7F70186858F778687DC2CCC2400
:10328000DD0C43C0F701808D918DA28DB38D281682
:1032900039064A065B06D9F04089518962897389EB
:1032A00082859385A485B585481759076A077B07EA
:1032B00070F401E010E0A20191016D817E81EB814B
:1032C000FC8181810E94D808892B09F04ECFF7013B
:1032D000208E318E428E538EF701808991899170B4
:1032E00020E032E0281B390B65012A153B0508F464
:1032F0006901A601B3012D813E81820F931F0E94B7
:103300006526F701868580688687AC18BD08EF8141
:10331000F885808191818C0D9D1D918380836C0C3B
:103320007D1CF70180899189A289B3898C0D9D1D2F
:10333000A11DB11D808B918BA28BB38B42855385D0
:1033400064857585481759076A077B0710F4AC0137
:10335000BD01F7014287538764877587ACCE87E04C
:1033600090E028960FB6F894DEBF0FBECDBFDF9178
:10337000CF911F910F91FF90EF90DF90CF90BF9072
:10338000AF909F908F907F906F905F904F903F9005
:103390002F900895CF92DF92EF92FF920F931F9399
:1033A000CF93DF9300D0CDB7DEB76C01BE016F5F66
:1033B0007F4F0E946C09009709F0F3C0D6011E965A
:1033C0008C911E9786FFE8C087FF17C058962D91F5
:1033D0003D914D915C915B97E981FA8101E010E0AC
:1033E000B6016E5D7F4F81810E94EA08892B09F04A
:1033F000D5C0F60186858F7786870E940F228B01C4
:103400007C01D6015C964D915D916D917C915F97A9
:1034100089819A810E94620A009709F0C2C0D60190
:103420009096ED91FC9191978385806283871696A3
:103430004D915D916D917C9119972D913C91428FA9
:10344000538FD9012C91233029F4CB01AA27BB2714
:10345000848B958BD6011A963C911A971B962C91CA
:103460001B971C969C911C971D968C91348F258FD1
:10347000968F878F068B178BE08EF18E128A138AB8
:10348000E980FA8081E0F7018383C7010E949809EF
:10349000009709F07CC0D7018C91833009F068C097
:1034A00014968C911497813009F062C080E092E00C
:1034B000B701615D7F4FFB019C01119221503040AB
:1034C000E1F785E5F701E35DFD4F80838AEA3196F8
:1034D000808382E59F968C939F97D0968C93D0970C
:1034E00081E6D1968C93D19791E4D2969C93D29712
:1034F00022E77B9720833196208331969083319603
:103500008083F7013785208991898289E95EFD4FA3
:1035100030833196208331969083319680831B9639
:103520003C911B971C962C911C971D969C911D9766
:103530001E968C91319630833196208331969083FC
:1035400031968083F701838D948DA58DB68D9C0176
:10355000AD012F5F3F4F4F4F5F4F23A734A745A7C4
:1035600056A701E010E081810E94EA08F701148269
:1035700040E050E060E0D70111968C910E94FC0879
:1035800031E020E0892B09F430E0832F922FF601FF
:1035900026852F7B268705C020E001C021E090E032
:1035A00001C0282F822F0F900F90DF91CF911F9194
:1035B0000F91FF90EF90DF90CF9008950F931F939E
:1035C000CF93DF9300D0CDB7DEB78C010E94CA192C
:1035D000009759F4BE016F5F7F4FC8010E946C09CC
:1035E000009719F4F801118210820F900F90DF916B
:1035F000CF911F910F9108954F925F926F927F929A
:103600008F929F92AF92BF92EF92FF920F931F9370
:10361000CF93DF93CDB7DEB72A970FB6F894DEBF0E
:103620000FBECDBF7C014A015B01BE016F5F7F4FC2
:103630000E946C09009709F0A5C1D7011F968C91D3
:103640001F9790E0009709F09DC11A968D919D916A
:103650000D90BC91A02D88159905AA05BB0530F4E5
:10366000F701268521FD02C04C015D01D70150966E
:103670004D905D906D907C905397F701108A118A60
:10368000128A138A81149104A104B10409F473C14C
:10369000E981FA8181859285A0E0B0E08C019D01ED
:1036A00049E0000F111F221F331F4A95D1F70B83EA
:1036B0001C832D833E83411451046104710409F479
:1036C00047C011E0411A510861087108C501B401F1
:1036D00061507109810991092B813C814D815E8185
:1036E0000E9453242F83388749875A87C301B20128
:1036F0002B813C814D815E810E9453246F817885AE
:1037000089859A85621773078407950708F18B816D
:103710009C81AD81BE81B095A095909581959F4F7C
:10372000AF4FBF4F482259226A227B22D7015096C1
:103730004D925D926D927C92539784189508A608DD
:10374000B70854964D915D916D917C91579732C019
:10375000F7014681578160857185411551056105E5
:10376000710519F540E050E0BA01C7010E94CB0F86
:10377000AB01BC01413051056105710529F482E0BE
:10378000D7011F968C93F5C04F3FBFEF5B076B07C8
:103790007B0721F481E0F7018787EBC0D7011696FC
:1037A0004D935D936D937C931997F701448B558BE3
:1037B000668B778B411551056105710509F044C091
:1037C000812C912C540181C00B811C812D813E8163
:1037D000801A910AA20AB30AF70180899189A28905
:1037E000B389800F911FA21FB31F808B918BA28B77
:1037F000B38B868581FF33C0C7010E94CB0FAB011D
:10380000BC01411551056105710581F14F3FBFEFC5
:103810005B076B077B0709F4BDCF4230510561059B
:10382000710508F4ACCFE981FA8183899489A5896F
:10383000B689481759076A077B0708F0A0CFF70138
:10384000448B558B668B778B0B811C812D813E8140
:10385000081519052A053B0508F4B6CF0AC0808172
:1038600091810E94A40AAB01BC01D0CF812C912C84
:103870005401F70180899189A289B389880D991D26
:10388000AA1DBB1D808B918BA28BB38BD501C4016C
:103890009170AA27BB27892B8A2B8B2B09F490CFF9
:1038A00089819A810E941D09611571058105910523
:1038B00009F465CF29E0B694A794979487942A9544
:1038C000D1F7860E971EA81EB91EF701808991892F
:1038D000A289B38942855385648575854817590740
:1038E0006A077B0738F482879387A487B587268584
:1038F000206426879170AA27BB27892B8A2B8B2BC4
:10390000B9F1D70158962D913D914D915C915B97FE
:10391000281539054A055B0559F11E968C91F7016A
:10392000B2963F0187FF12C0E981FA8101E010E001
:10393000B30181810E94EA08892B09F02BCFD701BE
:103940001E968C911E978F771E968C93E981FA8133
:1039500001E010E0A5019401B30181810E94D80823
:10396000892B09F017CFF701808E918EA28EB38E2E
:1039700080E090E007C080E090E0DC01812C912C99
:103980005401B8CF2A960FB6F894DEBF0FBECDBF54
:10399000DF91CF911F910F91FF90EF90BF90AF906B
:1039A0009F908F907F906F905F904F9008958EBD05
:1039B0000DB407FEFDCF8EB508952A9A8FEF0C94B3
:1039C000D71C0F931F93CF93DF938C01EB0184E1FE
:1039D000809315028FEF0E94D71C8F3F29F48091AE
:1039E00015028111F7CF1DC08E3FD9F4F8018FEF7A
:1039F0008EBD0DB407FEFDCF9EB590838EBD0DB478
:103A000007FEFDCF9EB5918322973296209781F7CE
:103A10008FEF0E94D71C8FEF0E94D71C81E090E0AF
:103A200002C080E090E0DF91CF911F910F91089547
:103A3000F89482E390E090931402809313027894B8
:103A40008FEF0E94D71C282FF89480911302909139
:103A5000140278942F3F11F0892B91F781E090E0C8
:103A60002F3F11F080E090E00895CF93DF932A98E4
:103A70008FEF0E94D71C0E94181DEC01892B19F4AE
:103A80000E94DD1C02C0C1E0D0E0CE01DF91CF91E9
:103A90000895FF920F931F93CF93DF93C82FD42FD6
:103AA000152F062FF72E87FF09C040E050E0BA011E
:103AB00087E30E94491D8230A8F5CF77CC3099F476
:103AC0008C2F80640E94D71C8F2D0E94D71C802FC2
:103AD0000E94D71C812F0E94D71C8D2F0E94D71CBB
:103AE000CC23F1F008C00E94DD1C0E94351D892BFB
:103AF00039F78FEF17C0C83011F487E801C081E0B3
:103B00000E94D71CCC3019F48FEF0E94D71CCAE05A
:103B10008FEF0E94D71C87FF05C0C150C9F702C0B4
:103B200085E9F3CFDF91CF911F910F91FF90089519
:103B30009C013E5FFC0140814EBD0DB407FEFDCFF0
:103B4000FC0141814EBD0DB407FEFDCF02968217E8
:103B5000930781F78FEF0E94D71C8FEF0E94D71C2D
:103B60008FEF0E94D71C282F2F7181E090E0253025
:103B700011F080E090E00895CF92DF92EF92FF92F3
:103B80000F931F93CF93DF9300D000D0CDB7DEB754
:103B90001CBC8AE080931502809115028111FCCF34
:103BA0008091000181FDAEC08FE39CE90197F1F7A0
:103BB00000C00000229A84B1886284B92C9A8CB526
:103BC00080658CBD8CB582608CBD8CB582608CBDEF
:103BD0001AE08FEF0E94D71C1150D9F740E050E057
:103BE000BA0180E00E94491D813009F078C084E666
:103BF000809315024AEA51E060E070E088E00E949C
:103C0000491D813009F043C08E010F5F1F4F6E01C7
:103C100095E0C90ED11C78018FEF0E94D71CF701E7
:103C200081937F01CE16DF06B9F78B81813009F0D1
:103C300056C08C818A3A09F052C0809115028111D8
:103C400006C080911502882309F449C00AC040E0EB
:103C500050E060E070E489EA0E94491D8111EDCFD7
:103C6000F0CF40E050E0BA018AE30E94491D811183
:103C700036C08FEF0E94D71CF80181938F01CE16BA
:103C8000DF06B9F7898186FD2CC018E02BC040E023
:103C900050E0BA0189EA0E94491D823018F011E013
:103CA00001E002C014E009EA80911502811105C00B
:103CB00080911502882399F009C040E050E0BA01D4
:103CC000802F0E94491D8111EFCFF2CF40E052E0DA
:103CD00060E070E080E10E94491D882319F010E047
:103CE00001C018E1109312020E94DD1C112349F05B
:103CF000809100018E7F809300018CB58D7F8CBDFB
:103D000001C01CBC809100010F900F900F900F908C
:103D1000DF91CF911F910F91FF90EF90DF90CF90A7
:103D20000895809100010895EF92FF921F93CF9321
:103D3000DF937C01E9012097A9F18091000180FDCA
:103D400033C08091120284FD07C089E0440F551FE3
:103D5000661F771F8A95D1F7C230D10510F411E1A3
:103D600001C012E1812F0E94491D811113C060E042
:103D700072E0C7010E94E11C892B21F08EEFF81A36
:103D80002197A9F7123131F440E050E0BA018CE0FC
:103D90000E94491D0E94DD1C81E090E0CD2B31F492
:103DA00080E004C084E001C083E090E0DF91CF9127
:103DB0001F91FF90EF900895CF92DF92EF92FF92C4
:103DC0000F931F93CF93DF938C016A017B01E9016D
:103DD000209709F45FC08091000180FD5DC0809153
:103DE000000182FD5BC08091120284FD07C099E052
:103DF000CC0CDD1CEE1CFF1C9A95D1F7C130D1050F
:103E0000E1F4B701A60188E10E94491D882319F059
:103E1000C1E0D0E037C00E94181D892BC9F38EEF96
:103E20000E94D71CC8010E94981D31E020E0892B18
:103E300009F030E0C32FD22F25C08C7031F0AE01D5
:103E400060E070E087E90E94491DB701A60189E1A1
:103E50000E94491D811116C00E94181D892B59F01E
:103E60008CEF0E94D71CC8010E94981D892B19F065
:103E70001E5F219789F70E94181D892B49F28DEF4B
:103E80000E94D71C0E94DD1C81E090E0CD2B41F404
:103E900080E006C084E003C083E001C082E090E0DF
:103EA000DF91CF911F910F91FF90EF90DF90CF9016
:103EB0000895CF92DF92EF92FF920F931F93CF93CB
:103EC000DF93CDB7DEB760970FB6F894DEBF0FBEB5
:103ED000CDBF9091000190FD49C28B01833309F45D
:103EE00008C1A0F4833009F488C028F4882311F1B4
:103EF000813019F13DC2873009F437C1823309F0AE
:103F000037C280911202FB01808335C1863309F4E8
:103F100016C138F4843309F4F1C0853309F4F9C0CB
:103F200027C2883309F486C108F427C1893309F40C
:103F3000D3C11EC20E94351D12C140E050E0BA013B
:103F400089E00E94491D81110CC260E170E0CE0140
:103F500001960E94E11C892B09F403C29981929574
:103F600096959695937029854A8588859130D9F4E0
:103F700030E0322F2227240F311D8F7390E0A0E014
:103F8000B0E0DC01992788270196A11DB11D820FA1
:103F9000931FA11DB11DFAE0880F991FAA1FBB1F17
:103FA000FA95D1F79FC02295269526952370F4E0C7
:103FB0008F9FC0011124820F911D01962F812370C4
:103FC00030E0322F2227330F330F820F931FA0E0F0
:103FD000B0E02E81322F3F702B85221F2227221F17
:103FE000230F4370440F420F475004C0880F991F9E
:103FF000AA1FBB1F4A95D2F775C0F090120240E08D
:1040000050E0BA01F3FE28C08DE80E94491D8111DD
:10401000A8C18FEF0E94D71C60E170E0CE0101962D
:104020000E94E11C892B09F49CC150E3F52E8FEF0F
:104030000E94D71CFA94F110FACF2B8522952F708D
:1040400080E190E0A0E0B0E004C0880F991FAA1FB3
:10405000BB1F2A95D2F746C089E00E94491D8111F5
:1040600080C160E170E0CE0101960E94E11C892BC5
:1040700009F477C12B858C85F2FE16C02F73881F3B
:104080008827881F90E00196820F911D820F911D55
:104090002E852295269526952370215002C0880FE3
:1040A000991F2A95E2F71CC0382F337082958695A8
:1040B000877090E0F8E03F9F800D911D11240196DC
:1040C0002C7730E035952795359527952F5F3F4F15
:1040D000829FA001839F500D929F500D1124CA0111
:1040E000A0E0B0E0F80180839183A283B38300E075
:1040F00039C140E050E0BA0189E004C040E050E03E
:10410000BA018AE00E94491D81112BC160E170E073
:1041100023C040E050E0BA018AE30E94491D8111AA
:1041200020C17801F4E0EF0EF11C8FEF0E94D71C44
:10413000F80181938F01EE15FF05B9F7D8CF40E064
:1041400050E0BA018DE80E94491D81110AC18FEF2C
:104150000E94D71C60E470E0C8010E94E11C01E0ED
:1041600010E0892B09F4FFC0FAC01CBC809100014B
:1041700081608093000100E0FCC0FB014381548119
:104180006581768139E0440F551F661F771F3A9588
:10419000D1F77068808190E0A0E0B0E02CE1880F5A
:1041A000991FAA1FBB1F2A95D1F7482B592B6A2BA1
:1041B0007B2B8181928101979170A0E0B0E0482B28
:1041C000592B6A2B7B2B80E30E94491D8111C9C0AA
:1041D00084E6809315028FEF0E94D71C8F3F29F44D
:1041E000809115028111F7CFBCC08E3F09F0B9C094
:1041F000F801E780F084C180D280CE0CDF1CCE14A1
:10420000DF0439F08FEF0E94D71CF70181937F0103
:10421000F6CFF8018181928102E012E0081B190BB0
:104220000115110509F463CF8FEF0E94D71C0150CF
:104230001109F6CFFB01438154816581768139E014
:10424000440F551F661F771F3A95D1F7706880811C
:1042500090E0A0E0B0E02CE1880F991FAA1FBB1FDF
:104260002A95D1F7482B592B6A2B7B2B8181928180
:1042700001979170A0E0B0E0482B592B6A2B7B2B63
:1042800081E30E94491D81116CC08FEF0E94D71CF1
:104290008EEF0E94D71CF801E780F084C180D280A5
:1042A000CE0CDF1CEC14FD0431F0F70181917F018D
:1042B0000E94D71CF7CFF8018181928102E012E0C1
:1042C000081B190B8FEF0115110509F441C00E945D
:1042D000D71C01501109F6CFFB0143815481658140
:1042E000768189E0440F551F661F771F8A95D1F7A5
:1042F0007468808190E0A0E0B0E02CE1880F991F05
:10430000AA1FBB1F2A95D1F7482B592B6A2B7B2B51
:10431000828190E0A0E0B0E0482B592B6A2B7B2BE8
:1043200081E30E94491D81111CC08FEF0E94D71CA0
:104330008EEF0E94D71CF80181810E94D71C01E0FA
:1043400012E08FEF0E94D71C01501109D1F78FEFB7
:104350000E94D71C8F7101E010E0853021F400E04D
:1043600002C001E010E00E94DD1C04C003E001C0B7
:1043700004E010E0C80160960FB6F894DEBF0FBEEF
:10438000CDBFDF91CF911F910F91FF90EF90DF9004
:10439000CF90089580911502882319F08150809361
:1043A00015028091130290911402009729F0019751
:1043B000909314028093130280910001897F80936F
:1043C000000108951F920F920FB60F9211242F93A0
:1043D0003F934F935F936F937F938F939F93AF938D
:1043E000BF93EF93FF9380917002909171020196B9
:1043F00090937102809370020E940609FF91EF91E1
:10440000BF91AF919F918F917F916F915F914F91EC
:104410003F912F910F900FBE0F901F9018950F9303
:104420001F930E942507E2E6F2E0458150E060E03C
:1044300070E085E1440F551F661F771F8A95D1F7FD
:104440008381682B828190E0A0E0B0E02BE0880FB0
:10445000991FAA1FBB1F2A95D1F7482B592B6A2BEE
:104460007B2B818190E0A0E0B0E035E0880F991FC0
:10447000AA1FBB1F3A95D1F7842B952BA62BB72BE0
:1044800020812695AC01BD01422B868197818C5BF2
:104490009740A0E0B0E0E9E1880F991FAA1FBB1F79
:1044A000EA95D1F78A019B01082B192B2A2B3B2B6C
:1044B000C901B8011F910F9108950F931F93CF93D6
:1044C000DF93CDB7DEB764970FB6F894DEBF0FBEAB
:1044D000CDBF0E942507E2E6F2E087818F938681B7
:1044E0008F9385811F928F9383811F928F938081F9
:1044F0001F928F9381811F928F9382811F928F933E
:1045000083EB91E09F938F938E010F5F1F4F1F935B
:104510000F930E9480268FEB93E00E94F406C8015F
:104520000E946B050FB6F894DEBF0FBECDBF649638
:104530000FB6F894DEBF0FBECDBFDF91CF911F91B4
:104540000F9108958BE987BD82E084BD95E095BD0C
:1045500080936E007894089590E08431910508F07E
:1045600041C0FC01EC5CFF4F0C94942482EB93E07F
:104570003BC089E793E038C085E693E035C082E42C
:1045800093E032C087E293E02FC08CE093E02CC030
:1045900089EE92E029C08DEA92E026C083E892E09D
:1045A00023C08BE592E020C081E392E01DC089E04A
:1045B00092E01AC089EE91E017C088EC91E014C037
:1045C0008BE991E011C086E591E00EC083E191E0B6
:1045D0000BC085EE90E008C08FEB90E005C080EA4C
:1045E00090E002C080E990E00C94F40640E06AE0BC
:1045F00072E082E792E00E9483120E94AC2242E3C2
:1046000065EC71E083EA94E00E94C7120E94AC223C
:1046100021EA34E048E050E06FEC71E083EA94E096
:104620000E9411180E94AC2283EA94E00E94DE1AD4
:104630000C94AC220F931F93CF93DF93CDB7DEB7CB
:104640006E970FB6F894DEBF0FBECDBF40E06AE0B4
:1046500072E082E792E00E9483120E94AC2242E361
:1046600060EE71E083EA94E00E94C712182F0E9466
:10467000AC22112371F046E060EE71E083EA94E031
:104680000E94C712182F0E94AC228AEE91E00E946D
:104690006B05812F0E94AC221A821982FE0133968B
:1046A0008CE1DF011D928A95E9F780916E0290916D
:1046B0006F026AE070E00E943F249F938F937F9384
:1046C0006F9380916D028F9380916C028F93809194
:1046D0006B028F9380916A028F93809163021F9285
:1046E0008F93809164021F928F9389EF91E09F9343
:1046F0008F938E010F5F1F4F1F930F930E94802691
:10470000F80101900020E9F73197AF01401B510BF0
:1047100021EA34E0B80183EA94E00E9411180E9473
:10472000AC2283EA94E00E94DE1A0E94AC220FB60B
:10473000F894DEBF0FBECDBF6E960FB6F894DEBF05
:104740000FBECDBFDF91CF911F910F9108950E94B1
:10475000A2220E94BA040E9411070E9437058AE033
:1047600092E00E946B058DE094E00E94F40688EFD1
:1047700093E00E94F4060E945D228AE692E00E9485
:10478000A0048CED93E00E94F40660916A0270919F
:104790006B0280916C0290916D0221E04AE00E94D0
:1047A000730589EC93E00E94F40660916E027091AB
:1047B0006F0280E090E00E945D2520E030E040E262
:1047C00051E40E94BC2441E00E94BD05C0916302F7
:1047D0000E9425078091630290E08C1B91091816B6
:1047E000190674F12FEF87EA91E62150804090403E
:1047F000E1F700C000002FEF87EA91E621508040EA
:104800009040E1F700C000002FEF87EA91E62150C9
:1048100080409040E1F700C000002FEF87EA91E66A
:10482000215080409040E1F700C000002FEF87EA60
:1048300091E6215080409040E1F700C00000C8CFD1
:104840000E941A23C3CFDB018F939F930E949A2467
:10485000BF91AF91A29F800D911DA39F900DB29F1C
:10486000900D11240895991B79E004C0991F9617A3
:1048700008F0961B881F7A95C9F780950895AA1BA2
:10488000BB1B51E107C0AA1FBB1FA617B70710F03B
:10489000A61BB70B881F991F5A95A9F7809590956D
:1048A000BC01CD010895A1E21A2EAA1BBB1BFD017C
:1048B0000DC0AA1FBB1FEE1FFF1FA217B307E407FF
:1048C000F50720F0A21BB30BE40BF50B661F771F57
:1048D000881F991F1A9469F7609570958095909537
:1048E0009B01AC01BD01CF010895052E97FB1EF47D
:1048F00000940E948C2457FD07D00E94532407FC8B
:1049000003D04EF40C948C2450954095309521950D
:104910003F4F4F4F5F4F08959095809570956195EB
:104920007F4F8F4F9F4F0895EE0FFF1F0590F4911B
:10493000E02D09940E94AD24A59F900DB49F900D89
:10494000A49F800D911D11240895B7FF0C949A2403
:104950000E949A24821B930B0895A29FB001B39FDB
:10496000C001A39F700D811D1124911DB29F700D78
:10497000811D1124911D08950E94D0240C94B1250D
:104980000E94AA2558F00E94A32540F029F45F3F19
:1049900029F00C949A2551110C94E5250C94A0252E
:1049A0000E94C22568F39923B1F3552391F3951B17
:1049B000550BBB27AA2762177307840738F09F5F40
:1049C0005F4F220F331F441FAA1FA9F335D00E2EAD
:1049D0003AF0E0E832D091505040E695001CCAF71A
:1049E0002BD0FE2F29D0660F771F881FBB1F2617DD
:1049F00037074807AB07B0E809F0BB0B802DBF01B4
:104A0000FF2793585F4F3AF09E3F510578F00C9482
:104A10009A250C94E5255F3FE4F3983ED4F3869500
:104A200077956795B795F7959F5FC9F7880F911DA3
:104A30009695879597F90895E1E0660F771F881F8F
:104A4000BB1F621773078407BA0720F0621B730B42
:104A5000840BBA0BEE1F88F7E09508950E94CA25D3
:104A600088F09F5798F0B92F9927B751B0F0E1F02F
:104A7000660F771F881F991F1AF0BA95C9F714C0DF
:104A8000B13091F00E94E425B1E008950C94E42542
:104A9000672F782F8827B85F39F0B93FCCF3869518
:104AA00077956795B395D9F73EF490958095709575
:104AB00061957F4F8F4F9F4F0895E89409C097FBF2
:104AC0003EF490958095709561957F4F8F4F9F4FE5
:104AD0009923A9F0F92F96E9BB279395F695879529
:104AE00077956795B795F111F8CFFAF4BB0F11F4EC
:104AF00060FF1BC06F5F7F4F8F4F9F4F16C0882393
:104B000011F096E911C0772321F09EE8872F762FC8
:104B100005C0662371F096E8862F70E060E02AF009
:104B20009A95660F771F881FDAF7880F96958795F5
:104B300097F9089597F99F6780E870E060E008951D
:104B40009FEF80EC089500240A94161617061806A5
:104B50000906089500240A94121613061406050681
:104B60000895092E0394000C11F4882352F0BB0F12
:104B700040F4BF2B11F460FF04C06F5F7F4F8F4F75
:104B80009F4F089557FD9058440F551F59F05F3FB0
:104B900071F04795880F97FB991F61F09F3F79F05F
:104BA00087950895121613061406551FF2CF4695E1
:104BB000F1DF08C0161617061806991FF1CF869563
:104BC0007105610508940895E894BB276627772747
:104BD000CB0197F908950E94FE250C94B1250E94FF
:104BE000A32538F00E94AA2520F0952311F00C94FB
:104BF0009A250C94A02511240C94E5250E94C22529
:104C000070F3959FC1F3950F50E0551F629FF0011F
:104C1000729FBB27F00DB11D639FAA27F00DB11D38
:104C2000AA1F649F6627B00DA11D661F829F2227C1
:104C3000B00DA11D621F739FB00DA11D621F839F48
:104C4000A00D611D221F749F3327A00D611D231F1E
:104C5000849F600D211D822F762F6A2F11249F576C
:104C600050409AF0F1F088234AF0EE0FFF1FBB1F6F
:104C7000661F771F881F91505040A9F79E3F51052E
:104C800080F00C949A250C94E5255F3FE4F3983E60
:104C9000D4F3869577956795B795F795E7959F5FD8
:104CA000C1F7FE2B880F911D9695879597F908956A
:104CB000FB01DC0104C08D910190801921F4415069
:104CC0005040C8F7881B990B0895FB01DC0102C016
:104CD00001900D9241505040D8F70895DC0101C079
:104CE0006D9341505040E0F70895FC018191861783
:104CF00021F08823D9F7992708953197CF01089596
:104D0000AEE0B0E0E6E8F6E20C9441290D891E8998
:104D100086E08C831A8309838FEF9FE79E838D83C0
:104D2000AE01475E5F4F6F89788DCE0101960E947C
:104D3000A226EF81F885E00FF11F10822E96E4E0A5
:104D40000C945D29ABE0B0E0E8EAF6E20C9433297C
:104D50006C017B018A01FC0117821682838181FF2D
:104D6000CCC1CE0101963C01F6019381F70193FD80
:104D7000859193FF81917F01882309F4BAC185321F
:104D800039F493FD859193FF81917F01853229F458
:104D9000B60190E00E949928E7CF912C212C312C6C
:104DA000FFE1F315D8F08B3279F038F4803279F0E6
:104DB0008332A1F4232D20611DC08D3261F0803338
:104DC00069F4232D216016C0832D8260382EE32DD7
:104DD000E4603E2E2AC0F32DF8601DC037FC2DC0C4
:104DE00020ED280F2A3040F08E32B9F436FC81C114
:104DF000232D2064322E19C036FE06C08AE0989E0C
:104E0000200D1124922E11C0EAE02E9E200D1124B7
:104E1000222EF32DF0623F2E08C08C3621F4832D14
:104E20008068382E02C0883641F4F70193FD8591E1
:104E300093FF81917F018111B3CF982F9F7D95546E
:104E4000933028F40C5F1F4F9FE399830DC0833686
:104E500031F0833771F0833509F059C021C0F80172
:104E6000808189830E5F1F4F88248394912C530186
:104E700013C02801F2E04F0E511CF801A080B18050
:104E800036FE03C0692D70E002C06FEF7FEFC501F1
:104E90000E948E284C018201F32DFF773F2E16C011
:104EA000280122E0420E511CF801A080B18036FE9C
:104EB00003C0692D70E002C06FEF7FEFC5010E9453
:104EC00083284C01F32DF0683F2E820133FC1BC078
:104ED000822D90E088169906B0F4B60180E290E049
:104EE0000E9499282A94F4CFF50137FC859137FE6A
:104EF00081915F01B60190E00E94992821102A94C7
:104F000021E0821A91088114910471F7E8C0843677
:104F100011F0893641F5F80137FE07C060817181D3
:104F2000828193810C5F1F4F08C060817181072EC1
:104F3000000C880B990B0E5F1F4FF32DFF763F2E51
:104F400097FF09C090958095709561957F4F8F4F21
:104F50009F4FF0683F2E2AE030E0A3010E94D52841
:104F6000882E861845C0853731F4232D2F7EB22E2A
:104F70002AE030E025C0932D997FB92E8F36C1F0FD
:104F800018F4883579F0B5C0803719F0883721F0EA
:104F9000B0C0E92FE061BE2EB4FE0DC0FB2DF46061
:104FA000BF2E09C034FE0AC0292F2660B22E06C0CB
:104FB00028E030E005C020E130E002C020E132E02E
:104FC000F801B7FE07C060817181828193810C5F17
:104FD0001F4F06C06081718180E090E00E5F1F4F1F
:104FE000A3010E94D528882E8618FB2DFF773F2E1F
:104FF00036FE0DC0232D2E7FA22E891458F434FEC8
:105000000BC032FC09C0832D8E7EA82E05C0B82CA3
:10501000A32C03C0B82C01C0B92CA4FE0FC0FE0104
:10502000E80DF11D8081803321F49A2D997EA92EFF
:1050300009C0A2FE06C0B394B39404C08A2D86783A
:1050400009F0B394A3FC11C0A0FE06C0B21488F40A
:10505000280C922C9B180EC0B21460F4B60180E2AA
:1050600090E00E949928B394F7CFB21418F42B184B
:1050700002C0982C212CA4FE10C0B60180E390E061
:105080000E949928A2FE17C0A1FC03C088E790E007
:1050900002C088E590E0B6010CC08A2D867859F0F0
:1050A000A1FE02C08BE201C080E2A7FC8DE2B60146
:1050B00090E00E949928891438F4B60180E390E0CA
:1050C0000E9499289A94F7CF8A94F301E80DF11D74
:1050D0008081B60190E00E9499288110F5CF2220AE
:1050E00009F442CEB60180E290E00E9499282A9409
:1050F000F6CFF6018681978102C08FEF9FEF2B9646
:10510000E2E10C944F29FC010590615070400110C0
:10511000D8F7809590958E0F9F1F0895FC016150E0
:10512000704001900110D8F7809590958E0F9F1FC9
:1051300008950F931F93CF93DF93FB01238121FDEC
:1051400003C08FEF9FEF2CC022FF16C0468157810E
:10515000248135814217530744F4A081B1819D0118
:105160002F5F3F4F318320838C93268137812F5FC0
:105170003F4F3783268314C08B01EC01FB01008471
:10518000F185E02D0995892BE1F6D80116968D91D0
:105190009C911797019617969C938E931697CE0124
:1051A000DF91CF911F910F910895FA01AA2728301E
:1051B00051F1203181F1E8946F936E7F6E5F7F4FE4
:1051C0008F4F9F4FAF4FB1E03ED0B4E03CD0670F60
:1051D000781F891F9A1FA11D680F791F8A1F911DB3
:1051E000A11D6A0F711D811D911DA11D20D009F403
:1051F00068943F912AE0269F11243019305D319345
:10520000DEF6CF010895462F4770405D4193B3E02D
:105210000FD0C9F7F6CF462F4F70405D4A3318F0D4
:10522000495D31FD4052419302D0A9F7EACFB4E085
:10523000A6959795879577956795BA95C9F700973D
:105240006105710508959B01AC010A2E06945795DE
:10525000479537952795BA95C9F7620F731F841F35
:10526000951FA01D08952F923F924F925F926F92CB
:105270007F928F929F92AF92BF92CF92DF92EF92E6
:10528000FF920F931F93CF93DF93CDB7DEB7CA1B67
:10529000DB0B0FB6F894DEBF0FBECDBF09942A8892
:1052A000398848885F846E847D848C849B84AA843A
:1052B000B984C884DF80EE80FD800C811B81AA81C7
:1052C000B981CE0FD11D0FB6F894DEBF0FBECDBF92
:0852D000ED010895F894FFCFF1
:1052D80001809A908F8E9186808989928B8C988E86
:1052E8008F9091928C99A9969D98999A9B9C9D9E36
:1052F8009F868B9F96A5A5A6A7A8A9AAABACADAE7D
:10530800AFB0B1B2B3B4B5B6B7B8B9BABBBCBDBE2D
:10531800BFC0C1C2C3C4C5C6C7C8C9CACBCCCDCE1D
:10532800CFD0D1D2D3D4D5D6D7D8D9DADBDCDDDE0D
:10533800DFE0E1E2E3E4E5E6E7E8E9EAEBECEDEEFD
:10534800EFF0F1F2F3F4F5F6F7F8F9FAFBFCFDFEED
:10535800FF256C64003078256C6F00256C58002E92
:10536800256400256F0030782558004641543332B3
:10537800202020002A2B2C3A3B3C3D3E5B5D7C22C2
:105388003F7F0025643A25643A25642025642D254D
:10539800642D25640054455354452E5458540054E4
:1053A80045535445204445204553435249544100F0
:1053B8006461646F732E7478740063726961646FDA
:1053C800206172717569766F0025643A25642C2511
:0C53D8006C642C25642E25640D0A000076
:00000001FF
